{
  "contractName": "Muplat",
  "abi": [
    {
      "constant": true,
      "inputs": [],
      "name": "owner",
      "outputs": [
        {
          "name": "",
          "type": "address"
        }
      ],
      "payable": false,
      "stateMutability": "view",
      "type": "function",
      "signature": "0x8da5cb5b"
    },
    {
      "inputs": [],
      "payable": false,
      "stateMutability": "nonpayable",
      "type": "constructor",
      "signature": "constructor"
    },
    {
      "constant": false,
      "inputs": [
        {
          "name": "mid",
          "type": "uint256"
        }
      ],
      "name": "PurchaseMusic",
      "outputs": [],
      "payable": true,
      "stateMutability": "payable",
      "type": "function",
      "signature": "0x63855f93"
    },
    {
      "constant": false,
      "inputs": [
        {
          "name": "_username",
          "type": "string"
        }
      ],
      "name": "UserRegister",
      "outputs": [],
      "payable": false,
      "stateMutability": "nonpayable",
      "type": "function",
      "signature": "0x3d1cef16"
    },
    {
      "constant": false,
      "inputs": [
        {
          "name": "_name",
          "type": "string"
        }
      ],
      "name": "ArtistRegister",
      "outputs": [],
      "payable": false,
      "stateMutability": "nonpayable",
      "type": "function",
      "signature": "0x40f2af62"
    },
    {
      "constant": false,
      "inputs": [
        {
          "name": "_price",
          "type": "uint256"
        },
        {
          "name": "_name",
          "type": "string"
        }
      ],
      "name": "UploadMusic",
      "outputs": [],
      "payable": false,
      "stateMutability": "nonpayable",
      "type": "function",
      "signature": "0xfa766d1e"
    },
    {
      "constant": true,
      "inputs": [],
      "name": "GetUser",
      "outputs": [
        {
          "name": "",
          "type": "uint256"
        },
        {
          "name": "",
          "type": "uint256"
        },
        {
          "name": "",
          "type": "string"
        },
        {
          "name": "",
          "type": "uint256[]"
        }
      ],
      "payable": false,
      "stateMutability": "view",
      "type": "function",
      "signature": "0x5ee0f654"
    },
    {
      "constant": true,
      "inputs": [],
      "name": "GetArtist",
      "outputs": [
        {
          "name": "",
          "type": "uint256"
        },
        {
          "name": "",
          "type": "string"
        },
        {
          "name": "",
          "type": "uint256[]"
        }
      ],
      "payable": false,
      "stateMutability": "view",
      "type": "function",
      "signature": "0xe87a3e93"
    },
    {
      "constant": true,
      "inputs": [
        {
          "name": "mid",
          "type": "uint256"
        }
      ],
      "name": "GetMusicInfo",
      "outputs": [
        {
          "name": "",
          "type": "string"
        },
        {
          "name": "",
          "type": "uint256"
        },
        {
          "name": "",
          "type": "uint256"
        },
        {
          "name": "",
          "type": "uint256"
        },
        {
          "name": "",
          "type": "string"
        }
      ],
      "payable": false,
      "stateMutability": "view",
      "type": "function",
      "signature": "0x3e710089"
    },
    {
      "constant": true,
      "inputs": [
        {
          "name": "_name",
          "type": "string"
        }
      ],
      "name": "SearchMusicByExactName",
      "outputs": [
        {
          "name": "",
          "type": "uint256[]"
        }
      ],
      "payable": false,
      "stateMutability": "view",
      "type": "function",
      "signature": "0xd63e02d1"
    }
  ],
  "bytecode": "0x608060405234801561001057600080fd5b50336000806101000a81548173ffffffffffffffffffffffffffffffffffffffff021916908373ffffffffffffffffffffffffffffffffffffffff160217905550600060018190555060006002819055506000600381905550611a14806100786000396000f3fe608060405260043610610099576000357c0100000000000000000000000000000000000000000000000000000000900463ffffffff1680633d1cef161461009e5780633e7100891461016657806340f2af621461029b5780635ee0f6541461036357806363855f93146104495780638da5cb5b14610477578063d63e02d1146104ce578063e87a3e93146105eb578063fa766d1e146106ca575b600080fd5b3480156100aa57600080fd5b50610164600480360360208110156100c157600080fd5b81019080803590602001906401000000008111156100de57600080fd5b8201836020820111156100f057600080fd5b8035906020019184600183028401116401000000008311171561011257600080fd5b91908080601f016020809104026020016040519081016040528093929190818152602001838380828437600081840152601f19601f82011690508083019250505050505050919291929050505061075a565b005b34801561017257600080fd5b5061019f6004803603602081101561018957600080fd5b8101908080359060200190929190505050610914565b604051808060200186815260200185815260200184815260200180602001838103835288818151815260200191508051906020019080838360005b838110156101f55780820151818401526020810190506101da565b50505050905090810190601f1680156102225780820380516001836020036101000a031916815260200191505b50838103825284818151815260200191508051906020019080838360005b8381101561025b578082015181840152602081019050610240565b50505050905090810190601f1680156102885780820380516001836020036101000a031916815260200191505b5097505050505050505060405180910390f35b3480156102a757600080fd5b50610361600480360360208110156102be57600080fd5b81019080803590602001906401000000008111156102db57600080fd5b8201836020820111156102ed57600080fd5b8035906020019184600183028401116401000000008311171561030f57600080fd5b91908080601f016020809104026020016040519081016040528093929190818152602001838380828437600081840152601f19601f820116905080830192505050505050509192919290505050610af1565b005b34801561036f57600080fd5b50610378610d6b565b604051808581526020018481526020018060200180602001838103835285818151815260200191508051906020019080838360005b838110156103c85780820151818401526020810190506103ad565b50505050905090810190601f1680156103f55780820380516001836020036101000a031916815260200191505b50838103825284818151815260200191508051906020019060200280838360005b83811015610431578082015181840152602081019050610416565b50505050905001965050505050505060405180910390f35b6104756004803603602081101561045f57600080fd5b8101908080359060200190929190505050610f77565b005b34801561048357600080fd5b5061048c61131c565b604051808273ffffffffffffffffffffffffffffffffffffffff1673ffffffffffffffffffffffffffffffffffffffff16815260200191505060405180910390f35b3480156104da57600080fd5b50610594600480360360208110156104f157600080fd5b810190808035906020019064010000000081111561050e57600080fd5b82018360208201111561052057600080fd5b8035906020019184600183028401116401000000008311171561054257600080fd5b91908080601f016020809104026020016040519081016040528093929190818152602001838380828437600081840152601f19601f820116905080830192505050505050509192919290505050611341565b6040518080602001828103825283818151815260200191508051906020019060200280838360005b838110156105d75780820151818401526020810190506105bc565b505050509050019250505060405180910390f35b3480156105f757600080fd5b50610600611404565b604051808481526020018060200180602001838103835285818151815260200191508051906020019080838360005b8381101561064a57808201518184015260208101905061062f565b50505050905090810190601f1680156106775780820380516001836020036101000a031916815260200191505b50838103825284818151815260200191508051906020019060200280838360005b838110156106b3578082015181840152602081019050610698565b505050509050019550505050505060405180910390f35b3480156106d657600080fd5b50610758600480360360408110156106ed57600080fd5b81019080803590602001909291908035906020019064010000000081111561071457600080fd5b82018360208201111561072657600080fd5b8035906020019184600183028401116401000000008311171561074857600080fd5b90919293919293905050506115ec565b005b6000600460003373ffffffffffffffffffffffffffffffffffffffff1673ffffffffffffffffffffffffffffffffffffffff16815260200190815260200160002060000154141515610814576040517f08c379a00000000000000000000000000000000000000000000000000000000081526004018080602001828103825260138152602001807f416c726561647920726567697374657265642e0000000000000000000000000081525060200191505060405180910390fd5b61081c61185e565b60806040519081016040528060026000815460010191905081905581526020016000815260200183815260200160006040519080825280602002602001820160405280156108795781602001602082028038833980820191505090505b50815250905080600460003373ffffffffffffffffffffffffffffffffffffffff1673ffffffffffffffffffffffffffffffffffffffff168152602001908152602001600020600082015181600001556020820151816001015560408201518160020190805190602001906108ef929190611887565b50606082015181600301908051906020019061090c929190611907565b509050505050565b606060008060006060610925611954565b6007600088815260200190815260200160002060a0604051908101604052908160008201548152602001600182015481526020016002820154815260200160038201548152602001600482018054600181600116156101000203166002900480601f016020809104026020016040519081016040528092919081815260200182805460018160011615610100020316600290048015610a055780601f106109da57610100808354040283529160200191610a05565b820191906000526020600020905b8154815290600101906020018083116109e857829003601f168201915b505050505081525050905060056000826000015181526020019081526020016000206001018160200151826040015183606001518460800151848054600181600116156101000203166002900480601f016020809104026020016040519081016040528092919081815260200182805460018160011615610100020316600290048015610ad35780601f10610aa857610100808354040283529160200191610ad3565b820191906000526020600020905b815481529060010190602001808311610ab657829003601f168201915b50505050509450809050955095509550955095505091939590929450565b6000600660003373ffffffffffffffffffffffffffffffffffffffff1673ffffffffffffffffffffffffffffffffffffffff16815260200190815260200160002054141515610ba8576040517f08c379a00000000000000000000000000000000000000000000000000000000081526004018080602001828103825260138152602001807f416c726561647920726567697374657265642e0000000000000000000000000081525060200191505060405180910390fd5b6000600460003373ffffffffffffffffffffffffffffffffffffffff1673ffffffffffffffffffffffffffffffffffffffff168152602001908152602001600020600001541415610bfd57610bfc8161075a565b5b610c05611984565b60806040519081016040528060036000815460010191905081905581526020018381526020013373ffffffffffffffffffffffffffffffffffffffff1681526020016000604051908082528060200260200182016040528015610c775781602001602082028038833980820191505090505b508152509050600354600660003373ffffffffffffffffffffffffffffffffffffffff1673ffffffffffffffffffffffffffffffffffffffff1681526020019081526020016000208190555080600560006003548152602001908152602001600020600082015181600001556020820151816001019080519060200190610cff929190611887565b5060408201518160020160006101000a81548173ffffffffffffffffffffffffffffffffffffffff021916908373ffffffffffffffffffffffffffffffffffffffff1602179055506060820151816003019080519060200190610d63929190611907565b509050505050565b600080606080600460003373ffffffffffffffffffffffffffffffffffffffff1673ffffffffffffffffffffffffffffffffffffffff16815260200190815260200160002060000154600460003373ffffffffffffffffffffffffffffffffffffffff1673ffffffffffffffffffffffffffffffffffffffff16815260200190815260200160002060010154600460003373ffffffffffffffffffffffffffffffffffffffff1673ffffffffffffffffffffffffffffffffffffffff168152602001908152602001600020600201600460003373ffffffffffffffffffffffffffffffffffffffff1673ffffffffffffffffffffffffffffffffffffffff168152602001908152602001600020600301818054600181600116156101000203166002900480601f016020809104026020016040519081016040528092919081815260200182805460018160011615610100020316600290048015610f105780601f10610ee557610100808354040283529160200191610f10565b820191906000526020600020905b815481529060010190602001808311610ef357829003601f168201915b5050505050915080805480602002602001604051908101604052809291908181526020018280548015610f6257602002820191906000526020600020905b815481526020019060010190808311610f4e575b50505050509050935093509350935090919293565b6000600460003373ffffffffffffffffffffffffffffffffffffffff1673ffffffffffffffffffffffffffffffffffffffff1681526020019081526020016000206000015414151515611032576040517f08c379a00000000000000000000000000000000000000000000000000000000081526004018080602001828103825260188152602001807f4f6e6c7920557365722063616e2063616c6c20746869732e000000000000000081525060200191505060405180910390fd5b600060076000838152602001908152602001600020905060008160010154141515156110c6576040517f08c379a00000000000000000000000000000000000000000000000000000000081526004018080602001828103825260178152602001807f546865206d75736963206973206e6f742065786973742e00000000000000000081525060200191505060405180910390fd5b806002015434141515611141576040517f08c379a00000000000000000000000000000000000000000000000000000000081526004018080602001828103825260198152602001807f546865207061796d656e7420697320696e636f72726563742e0000000000000081525060200191505060405180910390fd5b6000600460003373ffffffffffffffffffffffffffffffffffffffff1673ffffffffffffffffffffffffffffffffffffffff16815260200190815260200160002090508060040160008360010154815260200190815260200160002060009054906101000a900460ff16151515611220576040517f08c379a000000000000000000000000000000000000000000000000000000000815260040180806020018281038252601a8152602001807f416c726561647920626f756768742074686973206d757369632e00000000000081525060200191505060405180910390fd5b60018160040160008460010154815260200190815260200160002060006101000a81548160ff0219169083151502179055508060030182600101549080600181540180825580915050906001820390600052602060002001600090919290919091505550806001016000815460010191905081905550600560008360000154815260200190815260200160002060020160009054906101000a900473ffffffffffffffffffffffffffffffffffffffff1673ffffffffffffffffffffffffffffffffffffffff166108fc349081150290604051600060405180830381858888f19350505050158015611316573d6000803e3d6000fd5b50505050565b6000809054906101000a900473ffffffffffffffffffffffffffffffffffffffff1681565b60606008826040518082805190602001908083835b60208310151561137b5780518252602082019150602081019050602083039250611356565b6001836020036101000a03801982511681845116808217855250505050505090500191505090815260200160405180910390208054806020026020016040519081016040528092919081815260200182805480156113f857602002820191906000526020600020905b8154815260200190600101908083116113e4575b50505050509050919050565b6000606080611411611984565b60056000600660003373ffffffffffffffffffffffffffffffffffffffff1673ffffffffffffffffffffffffffffffffffffffff1681526020019081526020016000205481526020019081526020016000206080604051908101604052908160008201548152602001600182018054600181600116156101000203166002900480601f0160208091040260200160405190810160405280929190818152602001828054600181600116156101000203166002900480156115125780601f106114e757610100808354040283529160200191611512565b820191906000526020600020905b8154815290600101906020018083116114f557829003601f168201915b505050505081526020016002820160009054906101000a900473ffffffffffffffffffffffffffffffffffffffff1673ffffffffffffffffffffffffffffffffffffffff1673ffffffffffffffffffffffffffffffffffffffff168152602001600382018054806020026020016040519081016040528092919081815260200182805480156115c057602002820191906000526020600020905b8154815260200190600101908083116115ac575b505050505081525050905080600001518160200151826060015181915080905093509350935050909192565b6000600660003373ffffffffffffffffffffffffffffffffffffffff1673ffffffffffffffffffffffffffffffffffffffff16815260200190815260200160002054141515156116a4576040517f08c379a000000000000000000000000000000000000000000000000000000000815260040180806020018281038252601a8152602001807f4f6e6c79206172746973742063616e2063616c6c20746869732e00000000000081525060200191505060405180910390fd5b600060056000600660003373ffffffffffffffffffffffffffffffffffffffff1673ffffffffffffffffffffffffffffffffffffffff168152602001908152602001600020548152602001908152602001600020905080600301600160008154600101919050819055908060018154018082558091505090600182039060005260206000200160009091929091909150555060a06040519081016040528082600001548152602001600154815260200185815260200142815260200184848080601f016020809104026020016040519081016040528093929190818152602001838380828437600081840152601f19601f82011690508083019250505050505050815250600760006001548152602001908152602001600020600082015181600001556020820151816001015560408201518160020155606082015181600301556080820151816004019080519060200190611801929190611887565b50905050600883836040518083838082843780830192505050925050509081526020016040518091039020600154908060018154018082558091505090600182039060005260206000200160009091929091909150555050505050565b608060405190810160405280600081526020016000815260200160608152602001606081525090565b828054600181600116156101000203166002900490600052602060002090601f016020900481019282601f106118c857805160ff19168380011785556118f6565b828001600101855582156118f6579182015b828111156118f55782518255916020019190600101906118da565b5b50905061190391906119c3565b5090565b828054828255906000526020600020908101928215611943579160200282015b82811115611942578251825591602001919060010190611927565b5b50905061195091906119c3565b5090565b60a06040519081016040528060008152602001600081526020016000815260200160008152602001606081525090565b6080604051908101604052806000815260200160608152602001600073ffffffffffffffffffffffffffffffffffffffff168152602001606081525090565b6119e591905b808211156119e15760008160009055506001016119c9565b5090565b9056fea165627a7a723058202511054f380ab7c655b77da68faac2463400506052fe11d7af1155fe119469e40029",
  "source": "pragma solidity >=0.4.22 <0.6.0;\n\ncontract Muplat {\n    address public owner;\n    uint musicNumber;\n    uint userNumber;\n    uint artistNumber;\n\n    struct User {\n        uint uid;\n        uint musicNum;\n        string userName;\n        // string password;\n        uint[] purchasedMusic;\n        mapping(uint => bool) musicPurchased;\n    }\n\n    struct Artist {\n        uint aid;\n        string name;\n        address payable addr;\n        uint[] uploadedMusic;\n    }\n\n    struct Music {\n        uint aid;\n        uint mid;\n        uint price;\n        uint releaseTime;\n        string name;\n    }\n\n    mapping(address => User) addrToUser;\n    mapping(uint => Artist) idToArtist;\n    mapping(address => uint) addrToArtistID;\n    mapping(uint => Music) idToMusic;\n    mapping(string => uint[]) musicNameToID;\n\n    modifier onlyOwner {\n        require(\n            msg.sender == owner,\n            \"Only Owner can call this.\"\n        );\n        _;\n    }\n\n    modifier onlyUser {require(addrToUser[msg.sender].uid != 0, \"Only User can call this.\" ); _;}\n    modifier onlyArtist {require(addrToArtistID[msg.sender] != 0, \"Only artist can call this.\" ); _;}\n\n    constructor() public {\n        owner = msg.sender;\n        musicNumber = 0;\n        userNumber = 0;\n        artistNumber = 0;\n    }\n\n    function PurchaseMusic(uint mid)\n        payable\n        external\n        onlyUser\n    {\n        Music storage music = idToMusic[mid];\n        require(music.mid != 0, \"The music is not exist.\");\n        require(msg.value == music.price, \"The payment is incorrect.\");\n\n        User storage buyer = addrToUser[msg.sender];\n        require(!buyer.musicPurchased[music.mid], \"Already bought this music.\");\n\n        buyer.musicPurchased[music.mid] = true;\n        buyer.purchasedMusic.push(music.mid);\n        ++buyer.musicNum;\n\n        idToArtist[music.aid].addr.transfer(msg.value);\n    }\n\n    function UserRegister(string memory _username) public\n    {\n        require(addrToUser[msg.sender].uid == 0, \"Already registered.\");\n\n        User memory newUser = User(++userNumber, 0, _username, new uint[](0));\n        addrToUser[msg.sender] = newUser;\n    }\n\n    function ArtistRegister(string memory _name) public\n    {\n        require(addrToArtistID[msg.sender] == 0, \"Already registered.\");\n\n        if (addrToUser[msg.sender].uid == 0) {\n            UserRegister(_name);\n        }\n\n        Artist memory newArtist = Artist(++artistNumber, _name, msg.sender, new uint[](0));\n        addrToArtistID[msg.sender] = artistNumber;\n        idToArtist[artistNumber] = newArtist;\n    }\n\n    function UploadMusic(uint _price, string calldata _name)\n        external\n        onlyArtist\n    {\n        Artist storage uploader = idToArtist[addrToArtistID[msg.sender]];\n        uploader.uploadedMusic.push(++musicNumber);\n\n        idToMusic[musicNumber] = Music(uploader.aid, musicNumber, _price, now, _name);\n        musicNameToID[_name].push(musicNumber);\n    }\n\n    function GetUser()\n        public\n        view\n        returns(uint, uint, string memory, uint[] memory)\n    {\n        return (addrToUser[msg.sender].uid, addrToUser[msg.sender].musicNum,\n            addrToUser[msg.sender].userName, addrToUser[msg.sender].purchasedMusic);\n    }\n\n    function GetArtist()\n        public\n        view\n        returns(uint, string memory, uint[] memory)\n    {\n        Artist memory artist = idToArtist[addrToArtistID[msg.sender]];\n        return (artist.aid, artist.name, artist.uploadedMusic);\n    }\n\n    function GetMusicInfo(uint mid)\n        public\n        view\n        returns(string memory, uint, uint, uint, string memory)\n    {\n        Music memory music = idToMusic[mid];\n        return (idToArtist[music.aid].name, music.mid, music.price, music.releaseTime, music.name);\n    }\n\n    function SearchMusicByExactName(string memory _name)\n        public\n        view\n        returns(uint[] memory)\n    {\n        return musicNameToID[_name];\n    }\n}\n",
  "sourcePath": "C:/Users/AzureSky/Desktop/truffle-vue/app-users/contracts/Muplat.sol",
  "compiler": {
    "name": "solc",
    "version": "0.5.0+commit.1d4f565a.Emscripten.clang"
  },
  "schemaVersion": "3.0.0",
  "updatedAt": "2018-12-31T03:24:45.414Z",
  "devdoc": {
    "methods": {}
  },
  "userdoc": {
    "methods": {}
  }
}